{
  "contractName": "CrushChain",
  "abi": [
    {
      "constant": true,
      "inputs": [
        {
          "name": "",
          "type": "uint256"
        }
      ],
      "name": "posts",
      "outputs": [
        {
          "name": "id",
          "type": "uint256"
        },
        {
          "name": "content",
          "type": "string"
        },
        {
          "name": "timestamp",
          "type": "uint256"
        },
        {
          "name": "award",
          "type": "uint256"
        },
        {
          "name": "claimed",
          "type": "bool"
        },
        {
          "name": "flags",
          "type": "uint256"
        }
      ],
      "payable": false,
      "stateMutability": "view",
      "type": "function",
      "signature": "0x0b1e7f83"
    },
    {
      "constant": true,
      "inputs": [],
      "name": "postsCount",
      "outputs": [
        {
          "name": "",
          "type": "uint256"
        }
      ],
      "payable": false,
      "stateMutability": "view",
      "type": "function",
      "signature": "0x2dcbe545"
    },
    {
      "constant": true,
      "inputs": [
        {
          "name": "",
          "type": "uint256"
        },
        {
          "name": "",
          "type": "uint256"
        }
      ],
      "name": "crushes_pool",
      "outputs": [
        {
          "name": "sender",
          "type": "address"
        },
        {
          "name": "award",
          "type": "uint256"
        }
      ],
      "payable": false,
      "stateMutability": "view",
      "type": "function",
      "signature": "0x7edaef53"
    },
    {
      "constant": true,
      "inputs": [],
      "name": "crush",
      "outputs": [
        {
          "name": "",
          "type": "uint256"
        }
      ],
      "payable": false,
      "stateMutability": "view",
      "type": "function",
      "signature": "0xb359a9f9"
    },
    {
      "inputs": [],
      "payable": false,
      "stateMutability": "nonpayable",
      "type": "constructor",
      "signature": "constructor"
    },
    {
      "anonymous": false,
      "inputs": [
        {
          "indexed": false,
          "name": "id",
          "type": "uint256"
        },
        {
          "indexed": false,
          "name": "content",
          "type": "string"
        }
      ],
      "name": "PostAdded",
      "type": "event",
      "signature": "0x75ea6914e97cc80443a5d99b6ca70bd3edb283215f9e4986a0f5e2637ab0c7cd"
    },
    {
      "constant": false,
      "inputs": [
        {
          "name": "_content",
          "type": "string"
        }
      ],
      "name": "addPost",
      "outputs": [],
      "payable": false,
      "stateMutability": "nonpayable",
      "type": "function",
      "signature": "0xa6322819"
    },
    {
      "constant": true,
      "inputs": [],
      "name": "myPosts",
      "outputs": [
        {
          "name": "",
          "type": "uint256[]"
        }
      ],
      "payable": false,
      "stateMutability": "view",
      "type": "function",
      "signature": "0x2f147182"
    },
    {
      "constant": true,
      "inputs": [],
      "name": "crushBalance",
      "outputs": [
        {
          "name": "",
          "type": "uint256"
        }
      ],
      "payable": false,
      "stateMutability": "view",
      "type": "function",
      "signature": "0xc85ec7ef"
    },
    {
      "constant": false,
      "inputs": [
        {
          "name": "_id",
          "type": "uint256"
        }
      ],
      "name": "awardPost",
      "outputs": [],
      "payable": true,
      "stateMutability": "payable",
      "type": "function",
      "signature": "0x81830c68"
    }
  ],
  "bytecode": "0x608060405234801561001057600080fd5b506100ab608060405190810160405280605a81526020017f57656c636f6d6520746f204372757368436861696e21204d616b6520696d6d7581526020017f7461626c6520706f73747320746f20796f757220637275736820616e6420626581526020017f20617761726465642062792074686520636f6d6d756e69747921000000000000815250610230640100000000026401000000009004565b61016b60a060405190810160405280607481526020017f52657761726420706f73747320776869636820796f752077616e7420746f206681526020017f696e64206f7574206f776e657273206964656e746974792c20746865206f776e81526020017f65722063616e207468656e20636c61696d207468652072657761726420616e6481526020017f2052455645414c2068696d2f68657273656c6621000000000000000000000000815250610230640100000000026401000000009004565b61022b60a060405190810160405280607081526020017f4f75722073697465206465706c6f7973204d616368696e65204c6561726e696e81526020017f67206d6f64656c7320746f2066696c746572206f7574207370616d732120486581526020017f6c702069747320706572666f726d616e636520627920666c616767696e67206681526020017f616b6520637275736820706f7374732e00000000000000000000000000000000815250610230640100000000026401000000009004565b610501565b60c06040519081016040528060015481526020018281526020014281526020016000815260200160001515815260200160008152506002600060015481526020019081526020016000206000820151816000015560208201518160010190805190602001906102a092919061045c565b50604082015181600201556060820151816003015560808201518160040160006101000a81548160ff02191690831515021790555060a082015181600501559050503360036000600154815260200190815260200160002060006101000a81548173ffffffffffffffffffffffffffffffffffffffff021916908373ffffffffffffffffffffffffffffffffffffffff160217905550600460003373ffffffffffffffffffffffffffffffffffffffff1673ffffffffffffffffffffffffffffffffffffffff16815260200190815260200160002060015490806001815401808255809150509060018203906000526020600020016000909192909190915055506001600081548092919060010191905055507f75ea6914e97cc80443a5d99b6ca70bd3edb283215f9e4986a0f5e2637ab0c7cd600154826040518083815260200180602001828103825283818151815260200191508051906020019080838360005b8381101561041e578082015181840152602081019050610403565b50505050905090810190601f16801561044b5780820380516001836020036101000a031916815260200191505b50935050505060405180910390a150565b828054600181600116156101000203166002900490600052602060002090601f016020900481019282601f1061049d57805160ff19168380011785556104cb565b828001600101855582156104cb579182015b828111156104ca5782518255916020019190600101906104af565b5b5090506104d891906104dc565b5090565b6104fe91905b808211156104fa5760008160009055506001016104e2565b5090565b90565b6109df806105106000396000f3fe60806040526004361061008e576000357c0100000000000000000000000000000000000000000000000000000000900463ffffffff1680630b1e7f83146100935780632dcbe5451461016e5780632f147182146101995780637edaef531461020557806381830c6814610291578063a6322819146102bf578063b359a9f914610387578063c85ec7ef146103b2575b600080fd5b34801561009f57600080fd5b506100cc600480360360208110156100b657600080fd5b81019080803590602001909291905050506103dd565b604051808781526020018060200186815260200185815260200184151515158152602001838152602001828103825287818151815260200191508051906020019080838360005b8381101561012e578082015181840152602081019050610113565b50505050905090810190601f16801561015b5780820380516001836020036101000a031916815260200191505b5097505050505050505060405180910390f35b34801561017a57600080fd5b506101836104be565b6040518082815260200191505060405180910390f35b3480156101a557600080fd5b506101ae6104c4565b6040518080602001828103825283818151815260200191508051906020019060200280838360005b838110156101f15780820151818401526020810190506101d6565b505050509050019250505060405180910390f35b34801561021157600080fd5b506102486004803603604081101561022857600080fd5b810190808035906020019092919080359060200190929190505050610559565b604051808373ffffffffffffffffffffffffffffffffffffffff1673ffffffffffffffffffffffffffffffffffffffff1681526020018281526020019250505060405180910390f35b6102bd600480360360208110156102a757600080fd5b81019080803590602001909291905050506105b9565b005b3480156102cb57600080fd5b50610385600480360360208110156102e257600080fd5b81019080803590602001906401000000008111156102ff57600080fd5b82018360208201111561031157600080fd5b8035906020019184600183028401116401000000008311171561033357600080fd5b91908080601f016020809104026020016040519081016040528093929190818152602001838380828437600081840152601f19601f8201169050808301925050505050505091929192905050506106b7565b005b34801561039357600080fd5b5061039c6108e3565b6040518082815260200191505060405180910390f35b3480156103be57600080fd5b506103c76108ef565b6040518082815260200191505060405180910390f35b6002602052806000526040600020600091509050806000015490806001018054600181600116156101000203166002900480601f01602080910402602001604051908101604052809291908181526020018280546001816001161561010002031660029004801561048f5780601f106104645761010080835404028352916020019161048f565b820191906000526020600020905b81548152906001019060200180831161047257829003601f168201915b5050505050908060020154908060030154908060040160009054906101000a900460ff16908060050154905086565b60015481565b6060600460003373ffffffffffffffffffffffffffffffffffffffff1673ffffffffffffffffffffffffffffffffffffffff16815260200190815260200160002080548060200260200160405190810160405280929190818152602001828054801561054f57602002820191906000526020600020905b81548152602001906001019080831161053b575b5050505050905090565b60056020528160005260406000208181548110151561057457fe5b9060005260206000209060020201600091509150508060000160009054906101000a900473ffffffffffffffffffffffffffffffffffffffff16908060010154905082565b670de0b6b3a764000034101515156105d057600080fd5b6005600082815260200190815260200160002060408051908101604052803373ffffffffffffffffffffffffffffffffffffffff168152602001348152509080600181540180825580915050906001820390600052602060002090600202016000909192909190915060008201518160000160006101000a81548173ffffffffffffffffffffffffffffffffffffffff021916908373ffffffffffffffffffffffffffffffffffffffff1602179055506020820151816001015550505060006002600083815260200190815260200160002090503481600301540181600301819055505050565b60c060405190810160405280600154815260200182815260200142815260200160008152602001600015158152602001600081525060026000600154815260200190815260200160002060008201518160000155602082015181600101908051906020019061072792919061090e565b50604082015181600201556060820151816003015560808201518160040160006101000a81548160ff02191690831515021790555060a082015181600501559050503360036000600154815260200190815260200160002060006101000a81548173ffffffffffffffffffffffffffffffffffffffff021916908373ffffffffffffffffffffffffffffffffffffffff160217905550600460003373ffffffffffffffffffffffffffffffffffffffff1673ffffffffffffffffffffffffffffffffffffffff16815260200190815260200160002060015490806001815401808255809150509060018203906000526020600020016000909192909190915055506001600081548092919060010191905055507f75ea6914e97cc80443a5d99b6ca70bd3edb283215f9e4986a0f5e2637ab0c7cd600154826040518083815260200180602001828103825283818151815260200191508051906020019080838360005b838110156108a557808201518184015260208101905061088a565b50505050905090810190601f1680156108d25780820380516001836020036101000a031916815260200191505b50935050505060405180910390a150565b670de0b6b3a764000081565b60003073ffffffffffffffffffffffffffffffffffffffff1631905090565b828054600181600116156101000203166002900490600052602060002090601f016020900481019282601f1061094f57805160ff191683800117855561097d565b8280016001018555821561097d579182015b8281111561097c578251825591602001919060010190610961565b5b50905061098a919061098e565b5090565b6109b091905b808211156109ac576000816000905550600101610994565b5090565b9056fea165627a7a72305820a11db60fffb494fac4fe0ce6dcf67340d4d3a09256dd00d9de4aae8640ce4ce40029",
  "source": "pragma solidity ^0.5.0;\n\ncontract CrushChain {\n\n  address owner;\n\n  uint constant public crush = 1 ether; // around 25p per reward base\n\n  struct Post {\n    uint id; // Reference posts with their IDs\n    string content;\n    uint256 timestamp;\n    uint award; // 1 award = 1 microeth\n    bool claimed; // Whether the owner has claimed the post\n    uint flags; // Number of spam/inappropriate reports on post\n  }\n\n  struct IOU {\n    address sender;\n    uint award;\n  }\n\n  // Posts are a collection of post mapped from their id to content\n  uint public postsCount;\n  mapping(uint => Post) public posts;\n\n  // Securely store which address belong to which post\n  mapping(uint => address) private post2wallet;\n  mapping(address => uint[]) private wallet2post_ids;\n\n  // Awards pool contains a dictionary of a list, each post with an award\n  // maps its id to an IOU list which contains the awarder address and the award\n  mapping (uint => IOU[]) public crushes_pool;\n\n  constructor() public {\n    addPost(\"Welcome to CrushChain! Make immutable posts to your crush and be awarded by the community!\");\n    addPost(\"Reward posts which you want to find out owners identity, the owner can then claim the reward and REVEAL him/herself!\");\n    addPost(\"Our site deploys Machine Learning models to filter out spams! Help its performance by flagging fake crush posts.\");\n  }\n\n  event PostAdded(\n    uint id,\n    string content\n  );\n\n  function addPost (string memory _content) public {\n    posts[postsCount] = Post(postsCount, _content , now, 0, false, 0);\n    post2wallet[postsCount] = msg.sender;\n    wallet2post_ids[msg.sender].push(postsCount);\n    postsCount ++;\n    emit PostAdded(postsCount, _content);\n  }\n\n  function myPosts () public view returns (uint[] memory) {\n    return wallet2post_ids[msg.sender];\n  }\n\n  function crushBalance() public view returns (uint) {\n    return address(this).balance;\n  }\n\n  function awardPost (uint _id) public payable {\n    // Need to specify post id and award amount\n    require(msg.value >= crush);\n    crushes_pool[_id].push(IOU(msg.sender, msg.value));\n    Post storage mypost = posts[_id];\n    mypost.award = mypost.award + msg.value;\n    // Verify in truffle console: app = await CrushChain.deployed()\n    // add = await app.awardPost(0, 15) then crushlist = await app.crushes_pool(0,0)\n  }\n\n}\n",
  "sourcePath": "C:/Users/Tom Lu/crushbridge/contracts/CrushChain.sol",
  "compiler": {
    "name": "solc",
    "version": "0.5.0+commit.1d4f565a.Emscripten.clang"
  },
  "schemaVersion": "3.0.1",
  "updatedAt": "2019-03-09T18:56:56.755Z",
  "devdoc": {
    "methods": {}
  },
  "userdoc": {
    "methods": {}
  }
}