{
  "contractName": "CrushChain",
  "abi": [
    {
      "constant": true,
      "inputs": [
        {
          "name": "",
          "type": "uint256"
        }
      ],
      "name": "posts",
      "outputs": [
        {
          "name": "id",
          "type": "uint256"
        },
        {
          "name": "content",
          "type": "string"
        },
        {
          "name": "timestamp",
          "type": "uint256"
        },
        {
          "name": "award",
          "type": "uint256"
        },
        {
          "name": "claimed",
          "type": "bool"
        },
        {
          "name": "flags",
          "type": "uint256"
        },
        {
          "name": "likes",
          "type": "uint256"
        }
      ],
      "payable": false,
      "stateMutability": "view",
      "type": "function",
      "signature": "0x0b1e7f83"
    },
    {
      "constant": true,
      "inputs": [],
      "name": "postsCount",
      "outputs": [
        {
          "name": "",
          "type": "uint256"
        }
      ],
      "payable": false,
      "stateMutability": "view",
      "type": "function",
      "signature": "0x2dcbe545"
    },
    {
      "constant": true,
      "inputs": [
        {
          "name": "",
          "type": "uint256"
        },
        {
          "name": "",
          "type": "uint256"
        }
      ],
      "name": "crushes_pool",
      "outputs": [
        {
          "name": "sender",
          "type": "address"
        },
        {
          "name": "award",
          "type": "uint256"
        }
      ],
      "payable": false,
      "stateMutability": "view",
      "type": "function",
      "signature": "0x7edaef53"
    },
    {
      "inputs": [],
      "payable": false,
      "stateMutability": "nonpayable",
      "type": "constructor",
      "signature": "constructor"
    },
    {
      "constant": false,
      "inputs": [
        {
          "name": "_content",
          "type": "string"
        }
      ],
      "name": "addPost",
      "outputs": [],
      "payable": false,
      "stateMutability": "nonpayable",
      "type": "function",
      "signature": "0xa6322819"
    },
    {
      "constant": false,
      "inputs": [
        {
          "name": "_id",
          "type": "uint256"
        },
        {
          "name": "_award",
          "type": "uint256"
        }
      ],
      "name": "awardPost",
      "outputs": [],
      "payable": false,
      "stateMutability": "nonpayable",
      "type": "function",
      "signature": "0x0d7dbe10"
    }
  ],
  "bytecode": "0x608060405234801561001057600080fd5b506100ab608060405190810160405280605a81526020017f57656c636f6d6520746f204372757368436861696e21204d616b6520696d6d7581526020017f7461626c6520706f73747320746f20796f757220637275736820616e6420626581526020017f20617761726465642062792074686520636f6d6d756e69747921000000000000815250610230640100000000026401000000009004565b61016b60a060405190810160405280607481526020017f52657761726420706f73747320776869636820796f752077616e7420746f206681526020017f696e64206f7574206f776e657273206964656e746974792c20746865206f776e81526020017f65722063616e207468656e20636c61696d207468652072657761726420616e6481526020017f2052455645414c2068696d2f68657273656c6621000000000000000000000000815250610230640100000000026401000000009004565b61022b60a060405190810160405280607081526020017f4f75722073697465206465706c6f7973204d616368696e65204c6561726e696e81526020017f67206d6f64656c7320746f2066696c746572206f7574207370616d732120486581526020017f6c702069747320706572666f726d616e636520627920666c616767696e67206681526020017f616b6520637275736820706f7374732e00000000000000000000000000000000815250610230640100000000026401000000009004565b6103fe565b60e06040519081016040528060005481526020018281526020014281526020016000815260200160001515815260200160008152602001600081525060016000805481526020019081526020016000206000820151816000015560208201518160010190805190602001906102a6929190610359565b50604082015181600201556060820151816003015560808201518160040160006101000a81548160ff02191690831515021790555060a0820151816005015560c0820151816006015590505033600260008054815260200190815260200160002060006101000a81548173ffffffffffffffffffffffffffffffffffffffff021916908373ffffffffffffffffffffffffffffffffffffffff160217905550600080815480929190600101919050555050565b828054600181600116156101000203166002900490600052602060002090601f016020900481019282601f1061039a57805160ff19168380011785556103c8565b828001600101855582156103c8579182015b828111156103c75782518255916020019190600101906103ac565b5b5090506103d591906103d9565b5090565b6103fb91905b808211156103f75760008160009055506001016103df565b5090565b90565b6107208061040d6000396000f3fe60806040526004361061006d576000357c0100000000000000000000000000000000000000000000000000000000900463ffffffff1680630b1e7f83146100725780630d7dbe10146101545780632dcbe545146101995780637edaef53146101c4578063a632281914610250575b600080fd5b34801561007e57600080fd5b506100ab6004803603602081101561009557600080fd5b8101908080359060200190929190505050610318565b604051808881526020018060200187815260200186815260200185151515158152602001848152602001838152602001828103825288818151815260200191508051906020019080838360005b838110156101135780820151818401526020810190506100f8565b50505050905090810190601f1680156101405780820380516001836020036101000a031916815260200191505b509850505050505050505060405180910390f35b34801561016057600080fd5b506101976004803603604081101561017757600080fd5b8101908080359060200190929190803590602001909291905050506103ff565b005b3480156101a557600080fd5b506101ae6104c0565b6040518082815260200191505060405180910390f35b3480156101d057600080fd5b50610207600480360360408110156101e757600080fd5b8101908080359060200190929190803590602001909291905050506104c6565b604051808373ffffffffffffffffffffffffffffffffffffffff1673ffffffffffffffffffffffffffffffffffffffff1681526020018281526020019250505060405180910390f35b34801561025c57600080fd5b506103166004803603602081101561027357600080fd5b810190808035906020019064010000000081111561029057600080fd5b8201836020820111156102a257600080fd5b803590602001918460018302840111640100000000831117156102c457600080fd5b91908080601f016020809104026020016040519081016040528093929190818152602001838380828437600081840152601f19601f820116905080830192505050505050509192919290505050610526565b005b6001602052806000526040600020600091509050806000015490806001018054600181600116156101000203166002900480601f0160208091040260200160405190810160405280929190818152602001828054600181600116156101000203166002900480156103ca5780601f1061039f576101008083540402835291602001916103ca565b820191906000526020600020905b8154815290600101906020018083116103ad57829003601f168201915b5050505050908060020154908060030154908060040160009054906101000a900460ff16908060050154908060060154905087565b6003600083815260200190815260200160002060408051908101604052803373ffffffffffffffffffffffffffffffffffffffff168152602001838152509080600181540180825580915050906001820390600052602060002090600202016000909192909190915060008201518160000160006101000a81548173ffffffffffffffffffffffffffffffffffffffff021916908373ffffffffffffffffffffffffffffffffffffffff160217905550602082015181600101555050505050565b60005481565b6003602052816000526040600020818154811015156104e157fe5b9060005260206000209060020201600091509150508060000160009054906101000a900473ffffffffffffffffffffffffffffffffffffffff16908060010154905082565b60e060405190810160405280600054815260200182815260200142815260200160008152602001600015158152602001600081526020016000815250600160008054815260200190815260200160002060008201518160000155602082015181600101908051906020019061059c92919061064f565b50604082015181600201556060820151816003015560808201518160040160006101000a81548160ff02191690831515021790555060a0820151816005015560c0820151816006015590505033600260008054815260200190815260200160002060006101000a81548173ffffffffffffffffffffffffffffffffffffffff021916908373ffffffffffffffffffffffffffffffffffffffff160217905550600080815480929190600101919050555050565b828054600181600116156101000203166002900490600052602060002090601f016020900481019282601f1061069057805160ff19168380011785556106be565b828001600101855582156106be579182015b828111156106bd5782518255916020019190600101906106a2565b5b5090506106cb91906106cf565b5090565b6106f191905b808211156106ed5760008160009055506001016106d5565b5090565b9056fea165627a7a723058209803a761436396292cc62a0b08239bcc17eaee50be587cf1294d359bf23ce7410029",
  "source": "pragma solidity ^0.5.0;\n\ncontract CrushChain {\n\n  uint constant crushes = 2 finney; // around 25p per reward base\n\n  struct Post {\n    uint id; // Reference posts with their IDs\n    string content;\n    uint256 timestamp;\n    uint award; // 1 award = 1 microeth\n    bool claimed; // Whether the owner has claimed the post\n    uint flags; // Number of spam/inappropriate reports on post\n    uint likes;\n  }\n\n  struct IOU {\n    address sender;\n    uint award;\n  }\n\n  // Posts are a collection of post mapped from their id to content\n  uint public postsCount;\n  mapping(uint => Post) public posts;\n\n  // Securely store which address belong to which post\n  mapping(uint => address) private post2wallet;\n\n  // Awards pool contains a dictionary of a list, each post with an award\n  // maps its id to an IOU list which contains the awarder address and the award\n  mapping (uint => IOU[]) public crushes_pool;\n\n  constructor() public {\n    addPost(\"Welcome to CrushChain! Make immutable posts to your crush and be awarded by the community!\");\n    addPost(\"Reward posts which you want to find out owners identity, the owner can then claim the reward and REVEAL him/herself!\");\n    addPost(\"Our site deploys Machine Learning models to filter out spams! Help its performance by flagging fake crush posts.\");\n  }\n\n\n  function addPost (string memory _content) public {\n    posts[postsCount] = Post(postsCount, _content , now, 0, false, 0, 0);\n    post2wallet[postsCount] = msg.sender;\n    postsCount ++;\n  }\n\n  function awardPost (uint _id, uint _award) public {\n    // Need to specify post id and award amount\n    crushes_pool[_id].push(IOU(msg.sender, _award));\n    // Verify in truffle console: app = await CrushChain.deployed()\n    // add = await app.awardPost(0, 15) then crushlist = await app.crushes_pool(0,0)\n  }\n}\n",
  "sourcePath": "C:/Users/Tom Lu/crushbridge/contracts/CrushChain.sol",
  "compiler": {
    "name": "solc",
    "version": "0.5.0+commit.1d4f565a.Emscripten.clang"
  },
  "schemaVersion": "3.0.1",
  "updatedAt": "2019-03-06T11:12:56.956Z",
  "devdoc": {
    "methods": {}
  },
  "userdoc": {
    "methods": {}
  }
}