{
  "contractName": "CrushChain",
  "abi": [
    {
      "constant": true,
      "inputs": [
        {
          "name": "",
          "type": "uint256"
        }
      ],
      "name": "posts",
      "outputs": [
        {
          "name": "id",
          "type": "uint256"
        },
        {
          "name": "content",
          "type": "string"
        },
        {
          "name": "timestamp",
          "type": "uint256"
        },
        {
          "name": "award",
          "type": "uint256"
        },
        {
          "name": "claimed",
          "type": "bool"
        },
        {
          "name": "flags",
          "type": "uint256"
        }
      ],
      "payable": false,
      "stateMutability": "view",
      "type": "function",
      "signature": "0x0b1e7f83"
    },
    {
      "constant": true,
      "inputs": [],
      "name": "postsCount",
      "outputs": [
        {
          "name": "",
          "type": "uint256"
        }
      ],
      "payable": false,
      "stateMutability": "view",
      "type": "function",
      "signature": "0x2dcbe545"
    },
    {
      "constant": true,
      "inputs": [
        {
          "name": "",
          "type": "address"
        },
        {
          "name": "",
          "type": "uint256"
        }
      ],
      "name": "whoCanSeeWhom",
      "outputs": [
        {
          "name": "",
          "type": "uint256"
        }
      ],
      "payable": false,
      "stateMutability": "view",
      "type": "function",
      "signature": "0x6ebc5cba"
    },
    {
      "constant": true,
      "inputs": [
        {
          "name": "",
          "type": "uint256"
        },
        {
          "name": "",
          "type": "uint256"
        }
      ],
      "name": "crushes_pool",
      "outputs": [
        {
          "name": "sender",
          "type": "address"
        },
        {
          "name": "award",
          "type": "uint256"
        }
      ],
      "payable": false,
      "stateMutability": "view",
      "type": "function",
      "signature": "0x7edaef53"
    },
    {
      "constant": true,
      "inputs": [],
      "name": "crush",
      "outputs": [
        {
          "name": "",
          "type": "uint256"
        }
      ],
      "payable": false,
      "stateMutability": "view",
      "type": "function",
      "signature": "0xb359a9f9"
    },
    {
      "inputs": [],
      "payable": false,
      "stateMutability": "nonpayable",
      "type": "constructor",
      "signature": "constructor"
    },
    {
      "anonymous": false,
      "inputs": [
        {
          "indexed": false,
          "name": "id",
          "type": "uint256"
        },
        {
          "indexed": false,
          "name": "content",
          "type": "string"
        }
      ],
      "name": "PostAdded",
      "type": "event",
      "signature": "0x75ea6914e97cc80443a5d99b6ca70bd3edb283215f9e4986a0f5e2637ab0c7cd"
    },
    {
      "constant": false,
      "inputs": [
        {
          "name": "_content",
          "type": "string"
        }
      ],
      "name": "addPost",
      "outputs": [],
      "payable": false,
      "stateMutability": "nonpayable",
      "type": "function",
      "signature": "0xa6322819"
    },
    {
      "constant": true,
      "inputs": [],
      "name": "myPosts",
      "outputs": [
        {
          "name": "",
          "type": "uint256[]"
        }
      ],
      "payable": false,
      "stateMutability": "view",
      "type": "function",
      "signature": "0x2f147182"
    },
    {
      "constant": true,
      "inputs": [],
      "name": "crushBalance",
      "outputs": [
        {
          "name": "",
          "type": "uint256"
        }
      ],
      "payable": false,
      "stateMutability": "view",
      "type": "function",
      "signature": "0xc85ec7ef"
    },
    {
      "constant": false,
      "inputs": [
        {
          "name": "_id",
          "type": "uint256"
        }
      ],
      "name": "awardPost",
      "outputs": [],
      "payable": true,
      "stateMutability": "payable",
      "type": "function",
      "signature": "0x81830c68"
    },
    {
      "constant": false,
      "inputs": [
        {
          "name": "_id",
          "type": "uint256"
        }
      ],
      "name": "claimPost",
      "outputs": [
        {
          "name": "",
          "type": "uint256"
        }
      ],
      "payable": false,
      "stateMutability": "nonpayable",
      "type": "function",
      "signature": "0x559ef0c7"
    },
    {
      "constant": true,
      "inputs": [],
      "name": "idsIcanSee",
      "outputs": [
        {
          "name": "",
          "type": "uint256[]"
        }
      ],
      "payable": false,
      "stateMutability": "view",
      "type": "function",
      "signature": "0x5395250b"
    },
    {
      "constant": true,
      "inputs": [],
      "name": "addsIcanSee",
      "outputs": [
        {
          "name": "",
          "type": "address[]"
        }
      ],
      "payable": false,
      "stateMutability": "view",
      "type": "function",
      "signature": "0xf0bbf94e"
    }
  ],
  "bytecode": "0x60806040523480156200001157600080fd5b50620000ae608060405190810160405280605a81526020017f57656c636f6d6520746f204372757368436861696e21204d616b6520696d6d7581526020017f7461626c6520706f73747320746f20796f757220637275736820616e6420626581526020017f20617761726465642062792074686520636f6d6d756e6974792100000000000081525062000238640100000000026401000000009004565b6200017060a060405190810160405280607481526020017f52657761726420706f73747320776869636820796f752077616e7420746f206681526020017f696e64206f7574206f776e657273206964656e746974792c20746865206f776e81526020017f65722063616e207468656e20636c61696d207468652072657761726420616e6481526020017f2052455645414c2068696d2f68657273656c662100000000000000000000000081525062000238640100000000026401000000009004565b6200023260a060405190810160405280607081526020017f4f75722073697465206465706c6f7973204d616368696e65204c6561726e696e81526020017f67206d6f64656c7320746f2066696c746572206f7574207370616d732120486581526020017f6c702069747320706572666f726d616e636520627920666c616767696e67206681526020017f616b6520637275736820706f7374732e0000000000000000000000000000000081525062000238640100000000026401000000009004565b62000518565b60c0604051908101604052806001548152602001828152602001428152602001600081526020016000151581526020016000815250600260006001548152602001908152602001600020600082015181600001556020820151816001019080519060200190620002aa92919062000469565b50604082015181600201556060820151816003015560808201518160040160006101000a81548160ff02191690831515021790555060a082015181600501559050503360036000600154815260200190815260200160002060006101000a81548173ffffffffffffffffffffffffffffffffffffffff021916908373ffffffffffffffffffffffffffffffffffffffff160217905550600460003373ffffffffffffffffffffffffffffffffffffffff1673ffffffffffffffffffffffffffffffffffffffff16815260200190815260200160002060015490806001815401808255809150509060018203906000526020600020016000909192909190915055506001600081548092919060010191905055507f75ea6914e97cc80443a5d99b6ca70bd3edb283215f9e4986a0f5e2637ab0c7cd600154826040518083815260200180602001828103825283818151815260200191508051906020019080838360005b838110156200042a5780820151818401526020810190506200040d565b50505050905090810190601f168015620004585780820380516001836020036101000a031916815260200191505b50935050505060405180910390a150565b828054600181600116156101000203166002900490600052602060002090601f016020900481019282601f10620004ac57805160ff1916838001178555620004dd565b82800160010185558215620004dd579182015b82811115620004dc578251825591602001919060010190620004bf565b5b509050620004ec9190620004f0565b5090565b6200051591905b8082111562000511576000816000905550600101620004f7565b5090565b90565b61101b80620005286000396000f3fe6080604052600436106100ba576000357c0100000000000000000000000000000000000000000000000000000000900463ffffffff1680630b1e7f83146100bf5780632dcbe5451461019a5780632f147182146101c55780635395250b14610231578063559ef0c71461029d5780636ebc5cba146102ec5780637edaef531461035b57806381830c68146103e7578063a632281914610415578063b359a9f9146104dd578063c85ec7ef14610508578063f0bbf94e14610533575b600080fd5b3480156100cb57600080fd5b506100f8600480360360208110156100e257600080fd5b810190808035906020019092919050505061059f565b604051808781526020018060200186815260200185815260200184151515158152602001838152602001828103825287818151815260200191508051906020019080838360005b8381101561015a57808201518184015260208101905061013f565b50505050905090810190601f1680156101875780820380516001836020036101000a031916815260200191505b5097505050505050505060405180910390f35b3480156101a657600080fd5b506101af610680565b6040518082815260200191505060405180910390f35b3480156101d157600080fd5b506101da610686565b6040518080602001828103825283818151815260200191508051906020019060200280838360005b8381101561021d578082015181840152602081019050610202565b505050509050019250505060405180910390f35b34801561023d57600080fd5b5061024661071b565b6040518080602001828103825283818151815260200191508051906020019060200280838360005b8381101561028957808201518184015260208101905061026e565b505050509050019250505060405180910390f35b3480156102a957600080fd5b506102d6600480360360208110156102c057600080fd5b81019080803590602001909291905050506107b0565b6040518082815260200191505060405180910390f35b3480156102f857600080fd5b506103456004803603604081101561030f57600080fd5b81019080803573ffffffffffffffffffffffffffffffffffffffff169060200190929190803590602001909291905050506109b3565b6040518082815260200191505060405180910390f35b34801561036757600080fd5b5061039e6004803603604081101561037e57600080fd5b8101908080359060200190929190803590602001909291905050506109e3565b604051808373ffffffffffffffffffffffffffffffffffffffff1673ffffffffffffffffffffffffffffffffffffffff1681526020018281526020019250505060405180910390f35b610413600480360360208110156103fd57600080fd5b8101908080359060200190929190505050610a43565b005b34801561042157600080fd5b506104db6004803603602081101561043857600080fd5b810190808035906020019064010000000081111561045557600080fd5b82018360208201111561046757600080fd5b8035906020019184600183028401116401000000008311171561048957600080fd5b91908080601f016020809104026020016040519081016040528093929190818152602001838380828437600081840152601f19601f820116905080830192505050505050509192919290505050610b65565b005b3480156104e957600080fd5b506104f2610d91565b6040518082815260200191505060405180910390f35b34801561051457600080fd5b5061051d610d9d565b6040518082815260200191505060405180910390f35b34801561053f57600080fd5b50610548610dbc565b6040518080602001828103825283818151815260200191508051906020019060200280838360005b8381101561058b578082015181840152602081019050610570565b505050509050019250505060405180910390f35b6002602052806000526040600020600091509050806000015490806001018054600181600116156101000203166002900480601f0160208091040260200160405190810160405280929190818152602001828054600181600116156101000203166002900480156106515780601f1061062657610100808354040283529160200191610651565b820191906000526020600020905b81548152906001019060200180831161063457829003601f168201915b5050505050908060020154908060030154908060040160009054906101000a900460ff16908060050154905086565b60015481565b6060600460003373ffffffffffffffffffffffffffffffffffffffff1673ffffffffffffffffffffffffffffffffffffffff16815260200190815260200160002080548060200260200160405190810160405280929190818152602001828054801561071157602002820191906000526020600020905b8154815260200190600101908083116106fd575b5050505050905090565b6060600660003373ffffffffffffffffffffffffffffffffffffffff1673ffffffffffffffffffffffffffffffffffffffff1681526020019081526020016000208054806020026020016040519081016040528092919081815260200182805480156107a657602002820191906000526020600020905b815481526020019060010190808311610792575b5050505050905090565b60006003600083815260200190815260200160002060009054906101000a900473ffffffffffffffffffffffffffffffffffffffff1673ffffffffffffffffffffffffffffffffffffffff163373ffffffffffffffffffffffffffffffffffffffff1614151561081f57600080fd5b6000600560008481526020019081526020016000209050600081805490501015151561084a57600080fd5b600080600090505b8280549050811015610922576000838281548110151561086e57fe5b90600052602060002090600202019050806001015483019250600660008260000160009054906101000a900473ffffffffffffffffffffffffffffffffffffffff1673ffffffffffffffffffffffffffffffffffffffff1673ffffffffffffffffffffffffffffffffffffffff168152602001908152602001600020869080600181540180825580915050906001820390600052602060002001600090919290919091505550508080600101915050610852565b503373ffffffffffffffffffffffffffffffffffffffff166108fc829081150290604051600060405180830381858888f19350505050158015610969573d6000803e3d6000fd5b50600060026000868152602001908152602001600020905060018160040160006101000a81548160ff02191690831515021790555060008160030181905550819350505050919050565b6006602052816000526040600020818154811015156109ce57fe5b90600052602060002001600091509150505481565b6005602052816000526040600020818154811015156109fe57fe5b9060005260206000209060020201600091509150508060000160009054906101000a900473ffffffffffffffffffffffffffffffffffffffff16908060010154905082565b670de0b6b3a76400003410151515610a5a57600080fd5b6000600260008381526020019081526020016000209050600015158160040160009054906101000a900460ff161515141515610a9557600080fd5b6005600083815260200190815260200160002060408051908101604052803373ffffffffffffffffffffffffffffffffffffffff168152602001348152509080600181540180825580915050906001820390600052602060002090600202016000909192909190915060008201518160000160006101000a81548173ffffffffffffffffffffffffffffffffffffffff021916908373ffffffffffffffffffffffffffffffffffffffff160217905550602082015181600101555050503481600301540181600301819055505050565b60c0604051908101604052806001548152602001828152602001428152602001600081526020016000151581526020016000815250600260006001548152602001908152602001600020600082015181600001556020820151816001019080519060200190610bd5929190610f4a565b50604082015181600201556060820151816003015560808201518160040160006101000a81548160ff02191690831515021790555060a082015181600501559050503360036000600154815260200190815260200160002060006101000a81548173ffffffffffffffffffffffffffffffffffffffff021916908373ffffffffffffffffffffffffffffffffffffffff160217905550600460003373ffffffffffffffffffffffffffffffffffffffff1673ffffffffffffffffffffffffffffffffffffffff16815260200190815260200160002060015490806001815401808255809150509060018203906000526020600020016000909192909190915055506001600081548092919060010191905055507f75ea6914e97cc80443a5d99b6ca70bd3edb283215f9e4986a0f5e2637ab0c7cd600154826040518083815260200180602001828103825283818151815260200191508051906020019080838360005b83811015610d53578082015181840152602081019050610d38565b50505050905090810190601f168015610d805780820380516001836020036101000a031916815260200191505b50935050505060405180910390a150565b670de0b6b3a764000081565b60003073ffffffffffffffffffffffffffffffffffffffff1631905090565b606080600660003373ffffffffffffffffffffffffffffffffffffffff1673ffffffffffffffffffffffffffffffffffffffff168152602001908152602001600020805480602002602001604051908101604052809291908181526020018280548015610e4857602002820191906000526020600020905b815481526020019060010190808311610e34575b5050505050905060608151604051908082528060200260200182016040528015610e815781602001602082028038833980820191505090505b50905060008090505b8251811015610f415760008382815181101515610ea357fe5b90602001906020020151905060006003600083815260200190815260200160002060009054906101000a900473ffffffffffffffffffffffffffffffffffffffff169050808484815181101515610ef657fe5b9060200190602002019073ffffffffffffffffffffffffffffffffffffffff16908173ffffffffffffffffffffffffffffffffffffffff168152505050508080600101915050610e8a565b50809250505090565b828054600181600116156101000203166002900490600052602060002090601f016020900481019282601f10610f8b57805160ff1916838001178555610fb9565b82800160010185558215610fb9579182015b82811115610fb8578251825591602001919060010190610f9d565b5b509050610fc69190610fca565b5090565b610fec91905b80821115610fe8576000816000905550600101610fd0565b5090565b9056fea165627a7a723058206c60ca8eda577210fddf24f1d1bf799794854f25bc6db65727bb6a8ed313aec50029",
  "source": "pragma solidity ^0.5.0;\n\ncontract CrushChain {\n\n  address owner;\n\n  uint constant public crush = 1 ether;\n\n  struct Post {\n    uint id; // Reference posts with their IDs\n    string content;\n    uint256 timestamp;\n    uint award; //\n    bool claimed; // Whether the owner has claimed the post\n    uint flags; // Number of spam/inappropriate reports on post\n  }\n\n  struct IOU {\n    address sender;\n    uint award;\n  }\n\n  // Posts are a collection of post mapped from their id to content\n  uint public postsCount;\n  mapping(uint => Post) public posts;\n\n  // Securely store which address belong to which post\n  mapping(uint => address) private post2wallet;\n  mapping(address => uint[]) private wallet2post_ids;\n\n  // Awards pool contains a dictionary of a list, each post with an award\n  // maps its id to an IOU list which contains the awarder address and the award\n  mapping (uint => IOU[]) public crushes_pool;\n\n  // Public ledger that stores which address can see posts' identities\n  mapping (address => uint[]) public whoCanSeeWhom;\n\n  constructor() public {\n    addPost(\"Welcome to CrushChain! Make immutable posts to your crush and be awarded by the community!\");\n    addPost(\"Reward posts which you want to find out owners identity, the owner can then claim the reward and REVEAL him/herself!\");\n    addPost(\"Our site deploys Machine Learning models to filter out spams! Help its performance by flagging fake crush posts.\");\n  }\n\n  event PostAdded(\n    uint id,\n    string content\n  );\n\n  function addPost (string memory _content) public {\n    posts[postsCount] = Post(postsCount, _content , now, 0, false, 0);\n    post2wallet[postsCount] = msg.sender;\n    wallet2post_ids[msg.sender].push(postsCount);\n    postsCount ++;\n    emit PostAdded(postsCount, _content);\n  }\n\n  function myPosts () public view returns (uint[] memory) {\n    return wallet2post_ids[msg.sender];\n  }\n\n  function crushBalance() public view returns (uint) {\n    return address(this).balance;\n  }\n\n  function awardPost (uint _id) public payable {\n    // Need to specify post id\n    require(msg.value >= crush);\n    Post storage mypost = posts[_id];\n    require(mypost.claimed == false);\n    crushes_pool[_id].push(IOU(msg.sender, msg.value));\n    mypost.award = mypost.award + msg.value;\n    // Verify in truffle console: app = await CrushChain.deployed()\n  }\n\n  function claimPost (uint _id) public returns (uint) {\n    // First check whether the post belongs to the claimer\n    require(msg.sender == post2wallet[_id]);\n\n    // Second check whether their are any awards on the post\n    IOU[] storage myIOU_lst = crushes_pool[_id];\n    require(myIOU_lst.length >= 0);\n\n    uint rewardAmount;\n    for (uint i=0; i<myIOU_lst.length; i++) {\n      IOU storage myIOU = myIOU_lst[i];\n      rewardAmount = rewardAmount + myIOU.award;\n      // Add the sender id to the list of posts'identities which the sender can see\n      whoCanSeeWhom[myIOU.sender].push(_id);\n    }\n    // Transfer fund to owner\n    msg.sender.transfer(rewardAmount);\n\n    // Set the post to be claimed and clear the amount awarded\n    Post storage mypost = posts[_id];\n    mypost.claimed = true;\n    mypost.award = 0;\n\n    return rewardAmount;\n  }\n\n  function idsIcanSee() public view returns(uint [] memory) {\n    return whoCanSeeWhom[msg.sender];\n  }\n\n  function addsIcanSee() public view returns(address[] memory) {\n    // Get a list of ids which the current wallet has the privilege to see\n    uint[] memory viewable_ids = whoCanSeeWhom[msg.sender];\n\n    // Initialize address array which has the same length as viewable ids\n    address[] memory addresses = new address[](viewable_ids.length);\n    for (uint i=0; i<viewable_ids.length; i++) {\n      // Convert the post id to the owner's wallet address\n      uint id = viewable_ids[i];\n      address owner_add = post2wallet[id];\n      addresses[i] = owner_add;\n    }\n    return addresses;\n  }\n}\n",
  "sourcePath": "C:/Users/Tom Lu/crushbridge/contracts/CrushChain.sol",
  "compiler": {
    "name": "solc",
    "version": "0.5.0+commit.1d4f565a.Emscripten.clang"
  },
  "schemaVersion": "3.0.1",
  "updatedAt": "2019-03-10T10:17:05.483Z",
  "devdoc": {
    "methods": {}
  },
  "userdoc": {
    "methods": {}
  }
}